:020000040000FA
:020000001528C1
:040002000034003492
:08000800F200030E8312F30065
:10001000F01B0D280C18BA200F280C18E4208312AE
:10002000730E8300F20E720E090026213230572122
:1000300005198F29FC0140309320B320F101F00114
:10004000F5018312191B2228191F242883120A3054
:10005000F100F10B2928A2200830F800701E2E288C
:100060007012F0191D28701E33287012F01D1D2803
:10007000F80B2E28203084000B30F8000530F600F5
:10008000F701FA01FB01701E43287A280310F01AC9
:100090000314F70DF01AFA0AF60B43287708FB064B
:1000A0007803031955287A181D2877088000840AD8
:1000B0000530F600F701FA01F80B4328B3208B1343
:1000C0007B08FE39031D1D287C1C67201D2820305D
:1000D00084000330F4007408FE0000087921F40A5B
:1000E000840A2B300402031D6B2883127C14051430
:1000F0007728080070120310F0190314F50D701919
:1001000083287015432870110130750203198D285A
:1001100002307502031990281D28F501F0164628B3
:10012000F501F0124628FD000330990083160230D5
:100130009F00A030990085140516851605118312BD
:10014000051208000C1083168C010C148312C030A9
:100150008B00FF308F0003107D0CFE3E8E018E025F
:1001600003309000080083160C1083120C104030EE
:100170008B0008000C1083160C1C08008312FF3043
:100180008F0003107D0C0000FD3E8E018E02701664
:0C019000191BCC28F0110800F015080025
:04019C00AC0083161A
:1001A000051685168C010C14831205120C10C03034
:1001B0008B00FF308F0003102C0CFE3E8E018E0250
:1001C00007309000AB0108000C1083160C1C0800CF
:1001D0008312FF308F0003102C0CFE3E8E018E0226
:1001E0002B1408002B1CF2282B10831605168312E3
:1001F0002B1CF8282B1083160512831208002B1CC9
:10020000FF282B108316051283122B1C05292B1097
:1002100083160516831208002B1C0C292B1083163D
:100220001030850683122B1C13292B1008002B1C61
:1002300017292B1083161030850683122B1C1E29BC
:100240002B108316103085068312080083160510C4
:100250008510051585159F018113831207309900BC
:100260000510851008000F39303EAD00393C0318E9
:100270003B290730AD072D0808004521AE007E0858
:100280004521AE0EAE042E0E0800AD003030AD029A
:100290002D08093C031C4E292D0808001130AD0221
:1002A0002D08053C031C00342D080A3E0800AD0053
:1002B00059295A295B290000AD0B58290800AE00C6
:1002C0006430AD006329642965290000AD0B622903
:1002D000AE0B60290800AD000308AE002D088316A0
:1002E0009B001C141A088312AD002E0883002D08F1
:1002F0000800AD000308AE002D0883169A00831293
:100300007E0883169B001C1555309D00AA309D0069
:100310009C149C18892983122E0883000800BD2193
:1003200026214108CE20F017B321B321B321B321F8
:10033000B321B321B321B321B3212F3084000B307B
:10034000C3000008C700C70DC70DC70D0530C400A6
:10035000C70D0318B321031CB821C40BA829840AB4
:10036000C30BA12994293F180C213F1CF22008003F
:100370003F1817293F1CFF28080002306B21BF00DF
:1003800000306B21C00001306B21C1000330C92156
:100390000800C3004007C8002F30840043086B21C9
:1003A0008000840AC30A48084302031DCE290800BE
:02400E00A430DC
:104200000B004000000003000C000000000017003D
:0C421000050005001400120012000C0054
:00000001FF
